:100A970050617373776F7264204C6F636B20537967
:100AA7007374656D0043534533333100456E746588
:100AB70072207468652070617373776F7264005079
:100AC700617373776F726420436F72726563742109
:100AD7000050617373776F726420496E636F72722F
:050AE7006563742100AD
:100800007F38120BAF7F01120BAF7F10120BAF7F3F
:100810000C120BAF7F80120BAF7BFF7A0A79977DAA
:1008200014120B3E7FC0120BAF7BFF7A0A79AC7DAE
:1008300006120B3E7F01120BAF7BFF7A0A79B37D64
:1008400012120B3E7FC0120BAFC29020942E741771
:100850002509F87631750A00750B01120BF9050BA5
:10086000E50B7002050AC39408E50A940040EC7F8A
:100870002A120BD40509E5097002050820952E748B
:10088000172509F87632750A00750B01120BF90568
:100890000BE50B7002050AC39408E50A940040ECCE
:1008A0007F2A120BD40509E5097002050820962E4F
:1008B00074172509F87633750A00750B01120BF9C8
:1008C000050BE50B7002050AC39408E50A94004085
:1008D000EC7F2A120BD40509E50970020508C291C4
:1008E000D29020942E74172509F87634750A007575
:1008F0000B01120BF9050BE50B7002050AC39408F6
:10090000E50A940040EC7F2A120BD40509E5097032
:1009100002050820952E74172509F87635750A000A
:10092000750B01120BF9050BE50B7002050AC39458
:1009300008E50A940040EC7F2A120BD40509E5096A
:100940007002050820962E74172509F87636750A68
:1009500000750B01120BF9050BE50B7002050AC3BC
:100960009408E50A940040EC7F2A120BD40509E5AF
:100970000970020508C292D29120942E741725099D
:10098000F87637750A00750B01120BF9050BE50BAC
:100990007002050AC39408E50A940040EC7F2A120D
:1009A0000BD40509E5097002050820952E7417255A
:1009B00009F87638750A00750B01120BF9050BE57D
:1009C0000B7002050AC39408E50A940040EC7F2AE4
:1009D000120BD40509E5097002050820962E74173C
:1009E0002509F87639750A00750B01120BF9050B0C
:1009F000E50B7002050AC39408E50A940040EC7FF9
:100A00002A120BD40509E50970020508C293D29297
:100A100020942E74172509F8762A750A00750B01A3
:100A2000120BF9050BE50B7002050AC39408E50AE1
:100A3000940040EC7F2A120BD40509E509700205E9
:100A40000820952E74172509F87630750A00750B65
:100A500001120BF9050BE50B7002050AC39408E5BA
:100A60000A940040EC7F2A120BD40509E5097002B4
:100A7000050820961D120AEC750A00750B01120B71
:100A8000F9050BE50B7002050AC39408E50A94000A
:070A900040ECD2930208497B
:100AEC00E5176435703BE51864357035E5196435E8
:020AFC00702F59
:100AFE00D2B3C2B47F01120BAF7BFF7A0A79C67DE7
:100B0E0011120B3E750C00750D01120BF9050DE55A
:0F0B1E000D7002050CC39408E50C940040EC2206
:100B2D007F01120BAF7BFF7A0A79D87D13120B3E32
:010B3D002295
:100BAF008FA0C2B0C2B1D2B2750E00750F01120B79
:100BBF00F9050FE50F7002050EC39408E50E9400BA
:040BCF0040ECC2B282
:010BD30022FF
:100BD4008FA0D2B0C2B1D2B2751500751601120B36
:100BE400F90516E51670020515C39408E515940079
:040BF40040ECC2B25D
:010BF80022DA
:080B3E008B0E8A0F89108D1146
:100B4600E4F514E514C395115031AB0EAA0FA910A4
:100B5600851482758300120B82FF120BD475120066
:100B6600751301120BF90513E51370020512C394F0
:0B0B760008E512940040EC051480C854
:010B81002251
:100BF900E4FFFE0FBF00010EBE0FF8BFA0F5E4FF32
:0C0C0900FE0FBF00010EEF64644E70F59A
:010C150022BC
:03000000020C16D9
:0C0C1600787FE4F6D8FD7581200208000C
:100B8200BB010CE58229F582E5833AF583E0225028
:100B920006E92582F8E622BBFE06E92582F8E22272
:0D0BA200E58229F582E5833AF583E493228C
:00000001FF
